{
  "contracts/ArrayLength.sol": {
    "ArrayLength": {
      "abi": [
        {
          "inputs": [],
          "name": "getLength",
          "outputs": [
            {
              "internalType": "uint256",
              "name": "",
              "type": "uint256"
            }
          ],
          "stateMutability": "view",
          "type": "function"
        },
        {
          "inputs": [
            {
              "internalType": "uint256",
              "name": "",
              "type": "uint256"
            }
          ],
          "name": "numbers",
          "outputs": [
            {
              "internalType": "uint256",
              "name": "",
              "type": "uint256"
            }
          ],
          "stateMutability": "view",
          "type": "function"
        }
      ],
      "evm": {
        "bytecode": {
          "linkReferences": {},
          "object": "61010060405260016080908152600260a052600360c052600460e08190526027916000916038565b50348015603357600080fd5b506096565b8280548282559060005260206000209081019282156075579160200282015b828111156075578251829060ff169055916020019190600101906057565b50607f9291506083565b5090565b5b80821115607f57600081556001016084565b60c6806100a46000396000f3fe6080604052348015600f57600080fd5b506004361060325760003560e01c8063be1c766b146037578063d39fa23314604d575b600080fd5b6000545b60405190815260200160405180910390f35b603b60583660046078565b60008181548110606757600080fd5b600091825260209091200154905081565b600060208284031215608957600080fd5b503591905056fea2646970667358221220568886ceddbb82c539906dbd3bb5c6418d34c5e4020d5c4839d7131a337d2a9864736f6c634300081c0033",
          "opcodes": "PUSH2 0x100 PUSH1 0x40 MSTORE PUSH1 0x1 PUSH1 0x80 SWAP1 DUP2 MSTORE PUSH1 0x2 PUSH1 0xA0 MSTORE PUSH1 0x3 PUSH1 0xC0 MSTORE PUSH1 0x4 PUSH1 0xE0 DUP2 SWAP1 MSTORE PUSH1 0x27 SWAP2 PUSH1 0x0 SWAP2 PUSH1 0x38 JUMP JUMPDEST POP CALLVALUE DUP1 ISZERO PUSH1 0x33 JUMPI PUSH1 0x0 DUP1 REVERT JUMPDEST POP PUSH1 0x96 JUMP JUMPDEST DUP3 DUP1 SLOAD DUP3 DUP3 SSTORE SWAP1 PUSH1 0x0 MSTORE PUSH1 0x20 PUSH1 0x0 KECCAK256 SWAP1 DUP2 ADD SWAP3 DUP3 ISZERO PUSH1 0x75 JUMPI SWAP2 PUSH1 0x20 MUL DUP3 ADD JUMPDEST DUP3 DUP2 GT ISZERO PUSH1 0x75 JUMPI DUP3 MLOAD DUP3 SWAP1 PUSH1 0xFF AND SWAP1 SSTORE SWAP2 PUSH1 0x20 ADD SWAP2 SWAP1 PUSH1 0x1 ADD SWAP1 PUSH1 0x57 JUMP JUMPDEST POP PUSH1 0x7F SWAP3 SWAP2 POP PUSH1 0x83 JUMP JUMPDEST POP SWAP1 JUMP JUMPDEST JUMPDEST DUP1 DUP3 GT ISZERO PUSH1 0x7F JUMPI PUSH1 0x0 DUP2 SSTORE PUSH1 0x1 ADD PUSH1 0x84 JUMP JUMPDEST PUSH1 0xC6 DUP1 PUSH2 0xA4 PUSH1 0x0 CODECOPY PUSH1 0x0 RETURN INVALID PUSH1 0x80 PUSH1 0x40 MSTORE CALLVALUE DUP1 ISZERO PUSH1 0xF JUMPI PUSH1 0x0 DUP1 REVERT JUMPDEST POP PUSH1 0x4 CALLDATASIZE LT PUSH1 0x32 JUMPI PUSH1 0x0 CALLDATALOAD PUSH1 0xE0 SHR DUP1 PUSH4 0xBE1C766B EQ PUSH1 0x37 JUMPI DUP1 PUSH4 0xD39FA233 EQ PUSH1 0x4D JUMPI JUMPDEST PUSH1 0x0 DUP1 REVERT JUMPDEST PUSH1 0x0 SLOAD JUMPDEST PUSH1 0x40 MLOAD SWAP1 DUP2 MSTORE PUSH1 0x20 ADD PUSH1 0x40 MLOAD DUP1 SWAP2 SUB SWAP1 RETURN JUMPDEST PUSH1 0x3B PUSH1 0x58 CALLDATASIZE PUSH1 0x4 PUSH1 0x78 JUMP JUMPDEST PUSH1 0x0 DUP2 DUP2 SLOAD DUP2 LT PUSH1 0x67 JUMPI PUSH1 0x0 DUP1 REVERT JUMPDEST PUSH1 0x0 SWAP2 DUP3 MSTORE PUSH1 0x20 SWAP1 SWAP2 KECCAK256 ADD SLOAD SWAP1 POP DUP2 JUMP JUMPDEST PUSH1 0x0 PUSH1 0x20 DUP3 DUP5 SUB SLT ISZERO PUSH1 0x89 JUMPI PUSH1 0x0 DUP1 REVERT JUMPDEST POP CALLDATALOAD SWAP2 SWAP1 POP JUMP INVALID LOG2 PUSH5 0x6970667358 0x22 SLT KECCAK256 JUMP DUP9 DUP7 0xCE 0xDD 0xBB DUP3 0xC5 CODECOPY SWAP1 PUSH14 0xBD3BB5C6418D34C5E4020D5C4839 0xD7 SGT BYTE CALLER PUSH30 0x2A9864736F6C634300081C00330000000000000000000000000000000000 "
        },
        "methodIdentifiers": {
          "getLength()": "be1c766b",
          "numbers(uint256)": "d39fa233"
        }
      }
    }
  }
}