{
  "contracts/ArrayLoop.sol": {
    "ArrayLoop": {
      "abi": [
        {
          "inputs": [
            {
              "internalType": "uint256",
              "name": "",
              "type": "uint256"
            }
          ],
          "name": "numbers",
          "outputs": [
            {
              "internalType": "uint256",
              "name": "",
              "type": "uint256"
            }
          ],
          "stateMutability": "view",
          "type": "function"
        },
        {
          "inputs": [],
          "name": "sumArray",
          "outputs": [
            {
              "internalType": "uint256",
              "name": "sum",
              "type": "uint256"
            }
          ],
          "stateMutability": "view",
          "type": "function"
        }
      ],
      "evm": {
        "bytecode": {
          "linkReferences": {},
          "object": "61012060405260016080908152600260a052600360c052600460e0526005610100819052602d91600091603e565b50348015603957600080fd5b50609c565b828054828255906000526020600020908101928215607b579160200282015b82811115607b578251829060ff16905591602001919060010190605d565b5060859291506089565b5090565b5b8082111560855760008155600101608a565b61015a806100ab6000396000f3fe608060405234801561001057600080fd5b50600436106100365760003560e01c806381d734231461003b578063d39fa23314610055575b600080fd5b610043610068565b60405190815260200160405180910390f35b6100436100633660046100ce565b6100ad565b6000805b6000548110156100a95760008181548110610089576100896100e7565b90600052602060002001548261009f91906100fd565b915060010161006c565b5090565b600081815481106100bd57600080fd5b600091825260209091200154905081565b6000602082840312156100e057600080fd5b5035919050565b634e487b7160e01b600052603260045260246000fd5b8082018082111561011e57634e487b7160e01b600052601160045260246000fd5b9291505056fea2646970667358221220e9fe1e4ef081cf98c68a0dcf99c5f35dfc5fbfae6a994f49e6c4927587feece764736f6c634300081c0033",
          "opcodes": "PUSH2 0x120 PUSH1 0x40 MSTORE PUSH1 0x1 PUSH1 0x80 SWAP1 DUP2 MSTORE PUSH1 0x2 PUSH1 0xA0 MSTORE PUSH1 0x3 PUSH1 0xC0 MSTORE PUSH1 0x4 PUSH1 0xE0 MSTORE PUSH1 0x5 PUSH2 0x100 DUP2 SWAP1 MSTORE PUSH1 0x2D SWAP2 PUSH1 0x0 SWAP2 PUSH1 0x3E JUMP JUMPDEST POP CALLVALUE DUP1 ISZERO PUSH1 0x39 JUMPI PUSH1 0x0 DUP1 REVERT JUMPDEST POP PUSH1 0x9C JUMP JUMPDEST DUP3 DUP1 SLOAD DUP3 DUP3 SSTORE SWAP1 PUSH1 0x0 MSTORE PUSH1 0x20 PUSH1 0x0 KECCAK256 SWAP1 DUP2 ADD SWAP3 DUP3 ISZERO PUSH1 0x7B JUMPI SWAP2 PUSH1 0x20 MUL DUP3 ADD JUMPDEST DUP3 DUP2 GT ISZERO PUSH1 0x7B JUMPI DUP3 MLOAD DUP3 SWAP1 PUSH1 0xFF AND SWAP1 SSTORE SWAP2 PUSH1 0x20 ADD SWAP2 SWAP1 PUSH1 0x1 ADD SWAP1 PUSH1 0x5D JUMP JUMPDEST POP PUSH1 0x85 SWAP3 SWAP2 POP PUSH1 0x89 JUMP JUMPDEST POP SWAP1 JUMP JUMPDEST JUMPDEST DUP1 DUP3 GT ISZERO PUSH1 0x85 JUMPI PUSH1 0x0 DUP2 SSTORE PUSH1 0x1 ADD PUSH1 0x8A JUMP JUMPDEST PUSH2 0x15A DUP1 PUSH2 0xAB PUSH1 0x0 CODECOPY PUSH1 0x0 RETURN INVALID PUSH1 0x80 PUSH1 0x40 MSTORE CALLVALUE DUP1 ISZERO PUSH2 0x10 JUMPI PUSH1 0x0 DUP1 REVERT JUMPDEST POP PUSH1 0x4 CALLDATASIZE LT PUSH2 0x36 JUMPI PUSH1 0x0 CALLDATALOAD PUSH1 0xE0 SHR DUP1 PUSH4 0x81D73423 EQ PUSH2 0x3B JUMPI DUP1 PUSH4 0xD39FA233 EQ PUSH2 0x55 JUMPI JUMPDEST PUSH1 0x0 DUP1 REVERT JUMPDEST PUSH2 0x43 PUSH2 0x68 JUMP JUMPDEST PUSH1 0x40 MLOAD SWAP1 DUP2 MSTORE PUSH1 0x20 ADD PUSH1 0x40 MLOAD DUP1 SWAP2 SUB SWAP1 RETURN JUMPDEST PUSH2 0x43 PUSH2 0x63 CALLDATASIZE PUSH1 0x4 PUSH2 0xCE JUMP JUMPDEST PUSH2 0xAD JUMP JUMPDEST PUSH1 0x0 DUP1 JUMPDEST PUSH1 0x0 SLOAD DUP2 LT ISZERO PUSH2 0xA9 JUMPI PUSH1 0x0 DUP2 DUP2 SLOAD DUP2 LT PUSH2 0x89 JUMPI PUSH2 0x89 PUSH2 0xE7 JUMP JUMPDEST SWAP1 PUSH1 0x0 MSTORE PUSH1 0x20 PUSH1 0x0 KECCAK256 ADD SLOAD DUP3 PUSH2 0x9F SWAP2 SWAP1 PUSH2 0xFD JUMP JUMPDEST SWAP2 POP PUSH1 0x1 ADD PUSH2 0x6C JUMP JUMPDEST POP SWAP1 JUMP JUMPDEST PUSH1 0x0 DUP2 DUP2 SLOAD DUP2 LT PUSH2 0xBD JUMPI PUSH1 0x0 DUP1 REVERT JUMPDEST PUSH1 0x0 SWAP2 DUP3 MSTORE PUSH1 0x20 SWAP1 SWAP2 KECCAK256 ADD SLOAD SWAP1 POP DUP2 JUMP JUMPDEST PUSH1 0x0 PUSH1 0x20 DUP3 DUP5 SUB SLT ISZERO PUSH2 0xE0 JUMPI PUSH1 0x0 DUP1 REVERT JUMPDEST POP CALLDATALOAD SWAP2 SWAP1 POP JUMP JUMPDEST PUSH4 0x4E487B71 PUSH1 0xE0 SHL PUSH1 0x0 MSTORE PUSH1 0x32 PUSH1 0x4 MSTORE PUSH1 0x24 PUSH1 0x0 REVERT JUMPDEST DUP1 DUP3 ADD DUP1 DUP3 GT ISZERO PUSH2 0x11E JUMPI PUSH4 0x4E487B71 PUSH1 0xE0 SHL PUSH1 0x0 MSTORE PUSH1 0x11 PUSH1 0x4 MSTORE PUSH1 0x24 PUSH1 0x0 REVERT JUMPDEST SWAP3 SWAP2 POP POP JUMP INVALID LOG2 PUSH5 0x6970667358 0x22 SLT KECCAK256 0xE9 INVALID 0x1E 0x4E CREATE DUP2 0xCF SWAP9 0xC6 DUP11 0xD 0xCF SWAP10 0xC5 RETURN TSTORE 0xFC PUSH0 0xBF 0xAE PUSH11 0x994F49E6C4927587FEECE7 PUSH5 0x736F6C6343 STOP ADDMOD SHR STOP CALLER "
        },
        "methodIdentifiers": {
          "numbers(uint256)": "d39fa233",
          "sumArray()": "81d73423"
        }
      }
    }
  }
}