{
  "contracts/ArrayDelete.sol": {
    "ArrayDelete": {
      "abi": [
        {
          "inputs": [
            {
              "internalType": "uint256",
              "name": "",
              "type": "uint256"
            }
          ],
          "name": "numbers",
          "outputs": [
            {
              "internalType": "uint256",
              "name": "",
              "type": "uint256"
            }
          ],
          "stateMutability": "view",
          "type": "function"
        },
        {
          "inputs": [
            {
              "internalType": "uint256",
              "name": "index",
              "type": "uint256"
            }
          ],
          "name": "removeElement",
          "outputs": [],
          "stateMutability": "nonpayable",
          "type": "function"
        }
      ],
      "evm": {
        "bytecode": {
          "linkReferences": {},
          "object": "610100604052600a6080908152601460a052601e60c052602860e05260279060009060046038565b50348015603357600080fd5b506096565b8280548282559060005260206000209081019282156075579160200282015b828111156075578251829060ff169055916020019190600101906057565b50607f9291506083565b5090565b5b80821115607f57600081556001016084565b610167806100a56000396000f3fe608060405234801561001057600080fd5b50600436106100365760003560e01c80639fc37abf1461003b578063d39fa23314610050575b600080fd5b61004e610049366004610102565b610075565b005b61006361005e366004610102565b6100e1565b60405190815260200160405180910390f35b60005481106100c05760405162461bcd60e51b8152602060048201526013602482015272496e646578206f7574206f6620626f756e647360681b604482015260640160405180910390fd5b600081815481106100d3576100d361011b565b600091825260208220015550565b600081815481106100f157600080fd5b600091825260209091200154905081565b60006020828403121561011457600080fd5b5035919050565b634e487b7160e01b600052603260045260246000fdfea2646970667358221220d1a6939e25afc0b86a511eea1da6155164f60d434f41c2850b40c9b692a6b63a64736f6c634300081c0033",
          "opcodes": "PUSH2 0x100 PUSH1 0x40 MSTORE PUSH1 0xA PUSH1 0x80 SWAP1 DUP2 MSTORE PUSH1 0x14 PUSH1 0xA0 MSTORE PUSH1 0x1E PUSH1 0xC0 MSTORE PUSH1 0x28 PUSH1 0xE0 MSTORE PUSH1 0x27 SWAP1 PUSH1 0x0 SWAP1 PUSH1 0x4 PUSH1 0x38 JUMP JUMPDEST POP CALLVALUE DUP1 ISZERO PUSH1 0x33 JUMPI PUSH1 0x0 DUP1 REVERT JUMPDEST POP PUSH1 0x96 JUMP JUMPDEST DUP3 DUP1 SLOAD DUP3 DUP3 SSTORE SWAP1 PUSH1 0x0 MSTORE PUSH1 0x20 PUSH1 0x0 KECCAK256 SWAP1 DUP2 ADD SWAP3 DUP3 ISZERO PUSH1 0x75 JUMPI SWAP2 PUSH1 0x20 MUL DUP3 ADD JUMPDEST DUP3 DUP2 GT ISZERO PUSH1 0x75 JUMPI DUP3 MLOAD DUP3 SWAP1 PUSH1 0xFF AND SWAP1 SSTORE SWAP2 PUSH1 0x20 ADD SWAP2 SWAP1 PUSH1 0x1 ADD SWAP1 PUSH1 0x57 JUMP JUMPDEST POP PUSH1 0x7F SWAP3 SWAP2 POP PUSH1 0x83 JUMP JUMPDEST POP SWAP1 JUMP JUMPDEST JUMPDEST DUP1 DUP3 GT ISZERO PUSH1 0x7F JUMPI PUSH1 0x0 DUP2 SSTORE PUSH1 0x1 ADD PUSH1 0x84 JUMP JUMPDEST PUSH2 0x167 DUP1 PUSH2 0xA5 PUSH1 0x0 CODECOPY PUSH1 0x0 RETURN INVALID PUSH1 0x80 PUSH1 0x40 MSTORE CALLVALUE DUP1 ISZERO PUSH2 0x10 JUMPI PUSH1 0x0 DUP1 REVERT JUMPDEST POP PUSH1 0x4 CALLDATASIZE LT PUSH2 0x36 JUMPI PUSH1 0x0 CALLDATALOAD PUSH1 0xE0 SHR DUP1 PUSH4 0x9FC37ABF EQ PUSH2 0x3B JUMPI DUP1 PUSH4 0xD39FA233 EQ PUSH2 0x50 JUMPI JUMPDEST PUSH1 0x0 DUP1 REVERT JUMPDEST PUSH2 0x4E PUSH2 0x49 CALLDATASIZE PUSH1 0x4 PUSH2 0x102 JUMP JUMPDEST PUSH2 0x75 JUMP JUMPDEST STOP JUMPDEST PUSH2 0x63 PUSH2 0x5E CALLDATASIZE PUSH1 0x4 PUSH2 0x102 JUMP JUMPDEST PUSH2 0xE1 JUMP JUMPDEST PUSH1 0x40 MLOAD SWAP1 DUP2 MSTORE PUSH1 0x20 ADD PUSH1 0x40 MLOAD DUP1 SWAP2 SUB SWAP1 RETURN JUMPDEST PUSH1 0x0 SLOAD DUP2 LT PUSH2 0xC0 JUMPI PUSH1 0x40 MLOAD PUSH3 0x461BCD PUSH1 0xE5 SHL DUP2 MSTORE PUSH1 0x20 PUSH1 0x4 DUP3 ADD MSTORE PUSH1 0x13 PUSH1 0x24 DUP3 ADD MSTORE PUSH19 0x496E646578206F7574206F6620626F756E6473 PUSH1 0x68 SHL PUSH1 0x44 DUP3 ADD MSTORE PUSH1 0x64 ADD PUSH1 0x40 MLOAD DUP1 SWAP2 SUB SWAP1 REVERT JUMPDEST PUSH1 0x0 DUP2 DUP2 SLOAD DUP2 LT PUSH2 0xD3 JUMPI PUSH2 0xD3 PUSH2 0x11B JUMP JUMPDEST PUSH1 0x0 SWAP2 DUP3 MSTORE PUSH1 0x20 DUP3 KECCAK256 ADD SSTORE POP JUMP JUMPDEST PUSH1 0x0 DUP2 DUP2 SLOAD DUP2 LT PUSH2 0xF1 JUMPI PUSH1 0x0 DUP1 REVERT JUMPDEST PUSH1 0x0 SWAP2 DUP3 MSTORE PUSH1 0x20 SWAP1 SWAP2 KECCAK256 ADD SLOAD SWAP1 POP DUP2 JUMP JUMPDEST PUSH1 0x0 PUSH1 0x20 DUP3 DUP5 SUB SLT ISZERO PUSH2 0x114 JUMPI PUSH1 0x0 DUP1 REVERT JUMPDEST POP CALLDATALOAD SWAP2 SWAP1 POP JUMP JUMPDEST PUSH4 0x4E487B71 PUSH1 0xE0 SHL PUSH1 0x0 MSTORE PUSH1 0x32 PUSH1 0x4 MSTORE PUSH1 0x24 PUSH1 0x0 REVERT INVALID LOG2 PUSH5 0x6970667358 0x22 SLT KECCAK256 0xD1 0xA6 SWAP4 SWAP15 0x25 0xAF 0xC0 0xB8 PUSH11 0x511EEA1DA6155164F60D43 0x4F COINBASE 0xC2 DUP6 SIGNEXTEND BLOCKHASH 0xC9 0xB6 SWAP3 0xA6 0xB6 GASPRICE PUSH5 0x736F6C6343 STOP ADDMOD SHR STOP CALLER "
        },
        "methodIdentifiers": {
          "numbers(uint256)": "d39fa233",
          "removeElement(uint256)": "9fc37abf"
        }
      }
    }
  }
}