{
  "contracts/ContractAccess.sol": {
    "ArrayAccess": {
      "abi": [
        {
          "inputs": [
            {
              "internalType": "uint256",
              "name": "index",
              "type": "uint256"
            }
          ],
          "name": "getValue",
          "outputs": [
            {
              "internalType": "uint256",
              "name": "",
              "type": "uint256"
            }
          ],
          "stateMutability": "view",
          "type": "function"
        },
        {
          "inputs": [
            {
              "internalType": "uint256",
              "name": "",
              "type": "uint256"
            }
          ],
          "name": "numbers",
          "outputs": [
            {
              "internalType": "uint256",
              "name": "",
              "type": "uint256"
            }
          ],
          "stateMutability": "view",
          "type": "function"
        }
      ],
      "evm": {
        "bytecode": {
          "linkReferences": {},
          "object": "60e060405260056080908152600a60a052600f60c05260219060009060036032565b50348015602d57600080fd5b506090565b828054828255906000526020600020908101928215606f579160200282015b82811115606f578251829060ff169055916020019190600101906051565b506079929150607d565b5090565b5b8082111560795760008155600101607e565b61010e8061009f6000396000f3fe6080604052348015600f57600080fd5b506004361060325760003560e01c80630ff4c916146037578063d39fa233146058575b600080fd5b6046604236600460aa565b6067565b60405190815260200160405180910390f35b6046606336600460aa565b608a565b6000808281548110607857607860c2565b90600052602060002001549050919050565b60008181548110609957600080fd5b600091825260209091200154905081565b60006020828403121560bb57600080fd5b5035919050565b634e487b7160e01b600052603260045260246000fdfea26469706673582212208f22717f2df31998f97b4bd2b12f1e2f14f458400869ec62992ea1b399a085b064736f6c634300081c0033",
          "opcodes": "PUSH1 0xE0 PUSH1 0x40 MSTORE PUSH1 0x5 PUSH1 0x80 SWAP1 DUP2 MSTORE PUSH1 0xA PUSH1 0xA0 MSTORE PUSH1 0xF PUSH1 0xC0 MSTORE PUSH1 0x21 SWAP1 PUSH1 0x0 SWAP1 PUSH1 0x3 PUSH1 0x32 JUMP JUMPDEST POP CALLVALUE DUP1 ISZERO PUSH1 0x2D JUMPI PUSH1 0x0 DUP1 REVERT JUMPDEST POP PUSH1 0x90 JUMP JUMPDEST DUP3 DUP1 SLOAD DUP3 DUP3 SSTORE SWAP1 PUSH1 0x0 MSTORE PUSH1 0x20 PUSH1 0x0 KECCAK256 SWAP1 DUP2 ADD SWAP3 DUP3 ISZERO PUSH1 0x6F JUMPI SWAP2 PUSH1 0x20 MUL DUP3 ADD JUMPDEST DUP3 DUP2 GT ISZERO PUSH1 0x6F JUMPI DUP3 MLOAD DUP3 SWAP1 PUSH1 0xFF AND SWAP1 SSTORE SWAP2 PUSH1 0x20 ADD SWAP2 SWAP1 PUSH1 0x1 ADD SWAP1 PUSH1 0x51 JUMP JUMPDEST POP PUSH1 0x79 SWAP3 SWAP2 POP PUSH1 0x7D JUMP JUMPDEST POP SWAP1 JUMP JUMPDEST JUMPDEST DUP1 DUP3 GT ISZERO PUSH1 0x79 JUMPI PUSH1 0x0 DUP2 SSTORE PUSH1 0x1 ADD PUSH1 0x7E JUMP JUMPDEST PUSH2 0x10E DUP1 PUSH2 0x9F PUSH1 0x0 CODECOPY PUSH1 0x0 RETURN INVALID PUSH1 0x80 PUSH1 0x40 MSTORE CALLVALUE DUP1 ISZERO PUSH1 0xF JUMPI PUSH1 0x0 DUP1 REVERT JUMPDEST POP PUSH1 0x4 CALLDATASIZE LT PUSH1 0x32 JUMPI PUSH1 0x0 CALLDATALOAD PUSH1 0xE0 SHR DUP1 PUSH4 0xFF4C916 EQ PUSH1 0x37 JUMPI DUP1 PUSH4 0xD39FA233 EQ PUSH1 0x58 JUMPI JUMPDEST PUSH1 0x0 DUP1 REVERT JUMPDEST PUSH1 0x46 PUSH1 0x42 CALLDATASIZE PUSH1 0x4 PUSH1 0xAA JUMP JUMPDEST PUSH1 0x67 JUMP JUMPDEST PUSH1 0x40 MLOAD SWAP1 DUP2 MSTORE PUSH1 0x20 ADD PUSH1 0x40 MLOAD DUP1 SWAP2 SUB SWAP1 RETURN JUMPDEST PUSH1 0x46 PUSH1 0x63 CALLDATASIZE PUSH1 0x4 PUSH1 0xAA JUMP JUMPDEST PUSH1 0x8A JUMP JUMPDEST PUSH1 0x0 DUP1 DUP3 DUP2 SLOAD DUP2 LT PUSH1 0x78 JUMPI PUSH1 0x78 PUSH1 0xC2 JUMP JUMPDEST SWAP1 PUSH1 0x0 MSTORE PUSH1 0x20 PUSH1 0x0 KECCAK256 ADD SLOAD SWAP1 POP SWAP2 SWAP1 POP JUMP JUMPDEST PUSH1 0x0 DUP2 DUP2 SLOAD DUP2 LT PUSH1 0x99 JUMPI PUSH1 0x0 DUP1 REVERT JUMPDEST PUSH1 0x0 SWAP2 DUP3 MSTORE PUSH1 0x20 SWAP1 SWAP2 KECCAK256 ADD SLOAD SWAP1 POP DUP2 JUMP JUMPDEST PUSH1 0x0 PUSH1 0x20 DUP3 DUP5 SUB SLT ISZERO PUSH1 0xBB JUMPI PUSH1 0x0 DUP1 REVERT JUMPDEST POP CALLDATALOAD SWAP2 SWAP1 POP JUMP JUMPDEST PUSH4 0x4E487B71 PUSH1 0xE0 SHL PUSH1 0x0 MSTORE PUSH1 0x32 PUSH1 0x4 MSTORE PUSH1 0x24 PUSH1 0x0 REVERT INVALID LOG2 PUSH5 0x6970667358 0x22 SLT KECCAK256 DUP16 0x22 PUSH18 0x7F2DF31998F97B4BD2B12F1E2F14F4584008 PUSH10 0xEC62992EA1B399A085B0 PUSH5 0x736F6C6343 STOP ADDMOD SHR STOP CALLER "
        },
        "methodIdentifiers": {
          "getValue(uint256)": "0ff4c916",
          "numbers(uint256)": "d39fa233"
        }
      }
    }
  }
}