{
  "_format": "hh-sol-artifact-1",
  "contractName": "StringExample",
  "sourceName": "contracts/StringExample.sol",
  "abi": [
    {
      "inputs": [],
      "name": "message",
      "outputs": [
        {
          "internalType": "string",
          "name": "",
          "type": "string"
        }
      ],
      "stateMutability": "view",
      "type": "function"
    }
  ],
  "bytecode": "0x60c0604052601060809081526f48656c6c6f2c20457468657265756d2160801b60a05260009061002f90826100e1565b5034801561003c57600080fd5b5061019f565b634e487b7160e01b600052604160045260246000fd5b600181811c9082168061006c57607f821691505b60208210810361008c57634e487b7160e01b600052602260045260246000fd5b50919050565b601f8211156100dc57806000526020600020601f840160051c810160208510156100b95750805b601f840160051c820191505b818110156100d957600081556001016100c5565b50505b505050565b81516001600160401b038111156100fa576100fa610042565b61010e816101088454610058565b84610092565b6020601f821160018114610142576000831561012a5750848201515b600019600385901b1c1916600184901b1784556100d9565b600084815260208120601f198516915b828110156101725787850151825560209485019460019092019101610152565b50848210156101905786840151600019600387901b60f8161c191681555b50505050600190811b01905550565b61019a806101ae6000396000f3fe608060405234801561001057600080fd5b506004361061002b5760003560e01c8063e21f37ce14610030575b600080fd5b61003861004e565b60405161004591906100dc565b60405180910390f35b6000805461005b9061012a565b80601f01602080910402602001604051908101604052809291908181526020018280546100879061012a565b80156100d45780601f106100a9576101008083540402835291602001916100d4565b820191906000526020600020905b8154815290600101906020018083116100b757829003601f168201915b505050505081565b602081526000825180602084015260005b8181101561010a57602081860181015160408684010152016100ed565b506000604082850101526040601f19601f83011684010191505092915050565b600181811c9082168061013e57607f821691505b60208210810361015e57634e487b7160e01b600052602260045260246000fd5b5091905056fea2646970667358221220e1bf6e117499268a320b5f9e7d45154c95624e2d15273c4738d5dc7ddecd508f64736f6c634300081c0033",
  "linkReferences": {},
  "deployedLinkReferences": {}
}