{
  "_format": "hh-sol-artifact-1",
  "contractName": "StringLength",
  "sourceName": "contracts/StringLength.sol",
  "abi": [
    {
      "inputs": [
        {
          "internalType": "string",
          "name": "str",
          "type": "string"
        }
      ],
      "name": "getLength",
      "outputs": [
        {
          "internalType": "uint256",
          "name": "",
          "type": "uint256"
        }
      ],
      "stateMutability": "pure",
      "type": "function"
    }
  ],
  "bytecode": "0x6080604052348015600f57600080fd5b506101598061001f6000396000f3fe608060405234801561001057600080fd5b506004361061002b5760003560e01c80636981b5f414610030575b600080fd5b61004261003e36600461006a565b5190565b60405190815260200160405180910390f35b634e487b7160e01b600052604160045260246000fd5b60006020828403121561007c57600080fd5b813567ffffffffffffffff81111561009357600080fd5b8201601f810184136100a457600080fd5b803567ffffffffffffffff8111156100be576100be610054565b604051601f8201601f19908116603f0116810167ffffffffffffffff811182821017156100ed576100ed610054565b60405281815282820160200186101561010557600080fd5b8160208401602083013760009181016020019190915294935050505056fea264697066735822122015f90aa7c60f0f2e69f31bb3b1e9d0edcd7d224955f8e580e8ff11d42b60d94864736f6c634300081c0033",
  "linkReferences": {},
  "deployedLinkReferences": {}
}